:020000040000FA
:1000000038400020150200001D0200001F02000001
:100010002102000023020000250200000000000071
:1000200000000000000000000000000027020000A7
:1000300029020000000000002B020000FD02000069
:100040002F0200002F0200002F0200002F020000EC
:100050002F0200002F0200002F0200002F020000DC
:10006000A5050000D90500002F0200002F020000A6
:100070002F0200002F0200002F0200002F020000BC
:100080002F0200002F0200002F0200002F020000AC
:100090002F0200002F0200002F0200002F0200009C
:1000A0002F0200002F0200002F0200002F0200008C
:1000B0002F0200002F0200000000000000000000DE
:1000C0002F0200002F0200002F0200002F0200006C
:1000D0002F0200002F0200002F0200002F0200005C
:1000E0002F0200002F0200002F020000000000007D
:1000F000000000002F020000000000002F0200009E
:1001000000000000000000000000000000000000EF
:1001100000000000000000000000000000000000DF
:1001200000000000000000000000000000000000CF
:1001300000000000000000000000000000000000BF
:1001400000000000000000000000000000000000AF
:10015000000000000000000000000000000000009F
:10016000000000000000000000000000000000008F
:10017000000000000000000000000000000000007F
:10018000000000000000000000000000000000006F
:10019000000000000000000000000000000000005F
:1001A000000000000000000000000000000000004F
:1001B000000000000000000000000000000000003F
:1001C000000000000000000000000000000000002F
:1001D000000000000000000000000000000000001F
:1001E000000000000000000000000000000000000F
:1001F00000000000000000000000000000000000FF
:10020000DFF80CD000F068F8004800472109000032
:10021000384000200648804706480047FEE7FEE7D2
:10022000FEE7FEE7FEE7FEE7FEE7FEE7FEE7FEE7A6
:1002300025030000010200002DE9F05F05460020C3
:1002400092469B4688460646814640241BE0284647
:1002500041464746224600F02FF853465A46C01AF8
:10026000914110D311461846224600F016F82D1A77
:1002700067EB01084F4622460120002100F00DF8EF
:1002800017EB00094E41201EA4F10104DFDC4846B3
:1002900031462A464346BDE8F09F202A04DB203A37
:1002A00000FA02F1002070479140C2F1200320FAC9
:1002B00003F3194390407047202A04DB203A21FAC7
:1002C00002F00021704721FA02F3D040C2F120026F
:1002D0009140084319467047064C074D06E0E06818
:1002E00040F0010394E8070098471034AC42F6D37D
:1002F000FFF78AFF6C0900008C090000044882683F
:10030000C168521C41F100018260C1607047000069
:100310001800002002490148086070470090D0038F
:100320003000002010B44FF080520023D2E94C106E
:10033000082909D14FF0804CCCF80C31CCF81031A1
:10034000DFF8D4C1CCF80030082965D1734B1B68A5
:10035000DFF8CCC1CCF80030724B1B680CF1040CF8
:10036000CCF80030704B1B680CF1040CCCF800305A
:100370006E4B1B680CF1040CCCF800306C4B1B6806
:100380000CF1040CCCF800306A4B1B680CF1040C27
:10039000CCF80030684B1B68DFF8A0C1CCF8003007
:1003A000674B1B680CF1040CCCF80030654B1B68E4
:1003B0000CF1040CCCF80030634B1B680CF1040CFE
:1003C000CCF80030614B1B680CF1040CCCF8003009
:1003D0005F4B1B680CF1040CCCF800305D4B1B68C4
:1003E000DFF874C1CCF800305C4B1B680CF1040CD6
:1003F000CCF800305A4B1B680CF1040CCCF80030E0
:10040000584B1B680CF1040CCCF80030564B1B68A1
:100410000CF1040CCCF80030082908BF5FEA000397
:1004200004D1DFF84CC1514BCCF80030082908BF8B
:100430005FEA000304D1DFF83CC1FB23CCF80030B5
:10044000082908BF5FEA000308D14B4B92F85842D5
:10045000D3F800C064F3030CC3F800C0082908BF38
:100460005FEA000305D1DFF814C14FF40073CCF844
:100470000030082907D14248016811F0010F1CBF64
:100480006FF0010101603F48016841F470010160B3
:10049000BFF34F8FBFF36F8FD2E94C104FF0102294
:1004A000082905D1042803D9D2F808023649086082
:1004B000D2F8000210F0004F04BFD2F8040210F08E
:1004C000004F24D0314B01201860314801680029C9
:1004D000FCD04FF0120CC2F800C201680029FCD019
:1004E000C2F804C201680029FCD00021196001682B
:1004F0000029FCD0BFF34F8F26480168264A01F43B
:10050000E06111430160BFF34F8F00BFFDE7244955
:100510002248086010BC70473805004004040010F1
:1005200020C50040080400100C0400101004001046
:1005300014040010180400101C04001040C50040F2
:100540002004001024040010280400102C040010C3
:10055000300400103404001060C50040380400105E
:100560003C040010400400104404001048810300C3
:100570008C56004018F50040E40E004040960240C2
:100580000004004088ED00E05805004004E501400B
:1005900000E401400CED00E00400FA050090D003F7
:1005A000300000200A4881B0D0F84011012905D15F
:1005B0000021C0F84011D0F84001009005480169C1
:1005C00043694A1C43F100010261416101B0704777
:1005D000008000401800002038B5084CD4F84001D5
:1005E000012818BF38BD0020C4F840010448006845
:1005F0008047D4F84001009038BD000000900040D2
:100600001800002002E008C8121F08C1002AFAD111
:1006100070477047002001E001C1121F002AFBD182
:10062000704700F021B8000010B5054C206800F0BC
:1006300059F800F0BBF82068BDE8104000F078B829
:100640001000002010B50C4601460648C0E9001411
:10065000084600F06DF8204600F06AF8BDE810404A
:1006600000F0A6B810000020411E032988BF704783
:1006700010B508490C1814F8010C00F0B9F814F87A
:10068000010C00F0B5F8C14314F8010CBDE81040AE
:1006900000F090B864090000411E032988BF70472C
:1006A00003490844002110F8010C00F083B8000051
:1006B0006409000070B50A4D00240121285D00F096
:1006C000A3F8601C032C06D828444FF0FF3110F823
:1006D000010C00F06FF8641C042CEED3042070BDF4
:1006E00064090000411E032988BF7047034908447C
:1006F0004FF0FF3110F8010C00F05CB86809000001
:1007000070B50A4D00240121285D00F07DF8601CC1
:10071000032C06D828444FF0FF3110F8010C00F0EC
:1007200049F8641C042CEED3042070BD6809000055
:10073000411E032988BF704703490844002110F86F
:10074000010C00F037B800006809000010B500F097
:1007500099F8024A0021C2E9020110BD0000002000
:10076000054BC3E900214FF47A7148439968A0FB17
:100770000101024900F0A6B8000000208107000036
:1007800010B500F05FF8084CD4E90223FFF754FDE0
:100790004FF47A720023FFF74FFD0146D4E90002BF
:1007A000BDE81040104700000000002030BF704737
:1007B00070470000012202FA00F011F0010F14BF8F
:1007C0000149024908607047080500500C050050B7
:1007D00005490020086005490860091D0860091DD9
:1007E0000860091D08607047140500503407005068
:1007F000012101FA00F003490968084018BF0120EF
:10080000704700001005005001228240800000F176
:10081000A04061B1012918BF704708490A60D0F8AB
:10082000001721F0020100BFC0F80017704704490B
:100830000A60D0F8001741F00201F5E718050050F2
:100840001C05005070B44FF0E02080690A490B4A43
:100850000B4B0968B1FBF2F1081A9A680021DC68B9
:10086000064DA2FB05C604FB056402FB014270BCF9
:1008700010EB0C00514170473000002040420F0047
:100880001800002010B5FFF745FD0B480B49006824
:10089000B0FBF1F0411EB1F1807F0AD24FF0E020B1
:1008A0004161074AE02182F8141D0021816107217E
:1008B0000161102010BD00003000002040420F00F8
:1008C0000FE000E070B4114A00244FF0E02C1160FA
:1008D0000F4901224B1580B10E4E032535600E4D98
:1008E0002C600E4C20601004C1F80403C1F80022F3
:1008F000CCF800310A6070BC7047CCF88031BFF38F
:100900004F8FBFF36F8F4A6070BC70471800002094
:100910000090004008950040109500404095004030
:1009200010B5FFF755FFFFF7C5FE0446FFF70EFFB2
:10093000FFF7E6FE03210846FFF784FE002C04BF04
:10094000002010BD03242046FFF7A6FE22460449DE
:100950004FF4FA70FFF704FFFFF766FEFCE70000B4
:10096000230600000D0E0F101C1D1E1F8C09000019
:10097000000000203400000004060000C009000050
:1009800034000020044000001406000000000000B5
:100990000000000000000000000000000000000057
:1009A0000000000000000000000000000000000047
:1009B0000000000000000000000000000090D003D4
:0400000500000215E0
:00000001FF
